:020000040800F2
:1000000000000120E5250008092400081724000845
:1000100025240008332400084124000800000000C3
:10002000000000000000000000000000352600086D
:100030004F2400080000000035260008352600087F
:100040000000000035260008352600083526000887
:100050003526000835260008352600083526000814
:100060003526000835260008352600080000000067
:100070000000000000000000000000000000000080
:10008000000000000000000035260008000000000D
:1000900000000000000000000000000035260008FD
:1000A00035260008352600083526000835260008C4
:1000B0005D240008352600080000000035260008F1
:1000C00035260008352600083526000835260008A4
:1000D00035260008000000000000000000000000BD
:1000E00035260008352600083526000800000000E7
:1000F0000000000000000000000000000000000000
:100100000000000035260008000000003526000829
:1001100000000000000000000000000000000000DF
:1001200000000000000000000000000000000000CF
:1001300000000000000000000000000000000000BF
:10014000000000000000000000000000352600084C
:10015000000000000000000000000000000000009F
:1001600035260008352600080000000000000000C9
:10017000000000000000000000000000000000007F
:10018000000000003526000800000000000000000C
:040190003526000808
:1001940010B5054C237833B9044B13B10448AFF3BD
:1001A40000800123237010BD9C000020000000008B
:1001B4004827000808B5034B1BB103490348AFF3B4
:1001C400008008BD00000000A000002048270008AF
:1001D40053B94AB9002908BF00281CBF4FF0FF31AA
:1001E4004FF0FF3000F06EB9ADF1080C6DE904CEAC
:1001F40000F006F8DDF804E0DDE9022304B07047FE
:100204002DE9F047089D04468C46002B40F083807E
:100214008A42174647D9B2FA82F242B1C2F12000AB
:1002240024FA00F09140974040EA010C94404FEAD0
:100234001748230CBCFBF8F61FFA87FE08FB16C10F
:1002440043EA014306FB0EF1994209D9FB1806F172
:10025400FF3080F01981994240F21681023E3B44FE
:100264005B1AA4B2B3FBF8F008FB103344EA03446E
:1002740000FB0EFEA64509D93C1900F1FF3380F0BE
:100284000581A64540F2028102383C4440EA06401A
:10029400A4EB0E0400261DB1D4400023C5E900439D
:1002A4003146BDE8F08702B9FFDEB2FA82F2002AD5
:1002B40050D1CB1B4FEA174E1FFA87F80126B3FB28
:1002C400FEFC210C0EFB1C3341EA034108FB0CF33A
:1002D4008B4207D979180CF1FF3002D28B4200F21D
:1002E400E9808446C91AA3B2B1FBFEF00EFB1011DB
:1002F40043EA014408FB00F8A04507D93C1900F182
:10030400FF3302D2A04500F2D9801846A4EB0804BA
:1003140040EA0C40BFE78B4209D9002D00F0B180C0
:100324000026C5E9000130463146BDE8F087B3FA3E
:1003340083F6002E4AD18B4202D3824200F2B88067
:10034400841A61EB030101208C46002DA8D0C5E975
:10035400004CA5E7C2F1200320FA03F6974001FA06
:1003640002F04FEA174ED9403043030CB1FBFEF6BE
:100374001FFA87F80EFB161143EA014306FB08F146
:10038400994204FA02F409D9FB1806F1FF3C80F003
:100394008D80994240F28A80023E3B445B1A81B2CE
:1003A400B3FBFEF00EFB103341EA034100FB08F3FC
:1003B4008B4207D9791800F1FF3C73D28B4271D973
:1003C40002383944CB1A40EA064678E7C6F1200CD5
:1003D40003FA06F422FA0CF31C4320FA0CF701FA90
:1003E40006F34FEA144E21FA0CF11F433B0CB1FB08
:1003F400FEF91FFA84F80EFB191143EA014109FBC7
:1004040008FA8A4502FA06F200FA06F308D96118D6
:1004140009F1FF3048D28A4546D9A9F1020921449D
:10042400A1EB0A01BFB2B1FBFEF00EFB101147EACB
:10043400014700FB08F8B84507D9E71900F1FF3177
:100444002ED2B8452CD90238274440EA0940A7EBFC
:100454000807A0FB02894F45C64649461AD317D060
:100464005DB1B3EB0E0267EB010707FA0CFCF24037
:100474004CEA0202F740C5E9002700263146BDE8F0
:10048400F0872E4628460BE70646E9E61846FDE6C1
:100494004345E5D2B8EB020E69EB04010138DFE70E
:1004A4000846D2E760468DE78146B9E7664675E7B8
:1004B40030464AE7ACF1020C394413E702383C44B5
:1004C40024E700BF704700BF80B500AF02220921B6
:1004D400002000F00BFD02220A21002000F006FD9E
:1004E40007220921002000F045FD07220A210020EF
:1004F40000F040FD02F004F800BF80BD80B584B078
:1005040000AF786039600A237B737B7B3B730023E5
:10051400BB737B680A222749184602F0C7F80023F8
:10052400FB730BE0FA7BBB7B2249895C224AD154E2
:10053400BB7B0133BB73FB7B0133FB73FA7B3B7BDC
:100544009A42EFD3BB7B1C4A2021D154BB7B01339D
:10055400BB733B680A221949184602F0A7F8002326
:10056400FB730BE0FA7BBB7B1449895C124AD154C0
:10057400BB7B0133BB73FB7B0133FB73FA7B7B7B5C
:100584009A42EFD3BB7B0C4A0D21D154BB7B013380
:10059400BB731621084801F0D9FF074B00221A70DB
:1005A400044B00221A70054B00221A7000BF10374A
:1005B400BD4680BDE8000020F4000020DC000020DF
:1005C40080B500AF012301220621024800F0FEFBA2
:1005D40000BF80BD0004024080B500AF01220621A7
:1005E400024800F00CFE00BF80BD00BF00040240C2
:1005F40080B500AF00220621024800F000FE00BFD3
:1006040080BD00BF0004024080B582B000AF034645
:10061400FB7100220B21314800F0F1FD00220C2176
:100624002E4800F0ECFDFB791B09DBB203F001035B
:10063400DBB21A460521294800F0E1FDFB795B098C
:10064400DBB203F00103DBB21A460821234800F0B1
:10065400D6FDFB799B09DBB203F00103DBB21A463A
:100664000E211E4800F0CBFDFB79DB09DBB21A46F4
:100674000F211A4800F0C3FD00F08CF9FB7903F058
:100684000103DBB21A460521144800F0B8FDFB79DA
:100694005B08DBB203F00103DBB21A4608210F4802
:1006A40000F0ADFDFB799B08DBB203F00103DBB284
:1006B4001A460E21094800F0A2FDFB79DB08DBB2E3
:1006C40003F00103DBB21A460F21044800F097FD42
:1006D40000F060F900BF0837BD4680BD000002404D
:1006E40080B582B000AF0346FB7101220B21314873
:1006F40000F085FD00220C212E4800F080FDFB79DE
:100704001B09DBB203F00103DBB21A4605212948B9
:1007140000F075FDFB795B09DBB203F00103DBB28A
:100724001A460821234800F06AFDFB799B09DBB2D5
:1007340003F00103DBB21A460E211E4800F05FFDF0
:10074400FB79DB09DBB21A460F211A4800F057FD8A
:1007540000F020F9FB7903F00103DBB21A4605210E
:10076400144800F04CFDFB795B08DBB203F0010395
:10077400DBB21A4608210F4800F041FDFB799B08C3
:10078400DBB203F00103DBB21A460E21094800F084
:1007940036FDFB79DB08DBB203F00103DBB21A465A
:1007A4000F21044800F02BFD00F0F4F800BF0837D7
:1007B400BD4680BD0000024080B500AF0123012288
:1007C4000521234800F002FB0123012208212048CF
:1007D40000F0FCFA012301220E211D4800F0F6FA74
:1007E400012301220F211A4800F0F0FA012301220B
:1007F4000B21174800F0EAFA012301220C211448C6
:1008040000F0E4FA012301220D21114800F0DEFA80
:100814001E2000F087FE3320FFF7F6FE3220FFF79C
:10082400F3FE2820FFF7F0FE0C20FFF7EDFE022078
:1008340000F078FE0220FFF7E7FE0120FFF7E4FE58
:10084400022000F06FFE0620FFF7DEFE00BF80BD31
:100854000000024080B584B000AF78600023FB73D1
:1008640009E0FB7B7A6813441B781846FFF738FFCE
:10087400FB7B0133FB73FB7B7A6813441B78002BEF
:10088400EFD100BF00BF1037BD4680BD80B582B038
:1008940000AF78600B46FB701346BB70BA78FB78E8
:1008A4001146184600F007F87868FFF7D3FF00BF39
:1008B4000837BD4680BD80B584B000AF03460A4604
:1008C400FB711346BB71FB79002B02D1BB79FB731F
:1008D40005E0FB79012B02D1BB794033FB73FB7B31
:1008E400803BDBB21846FFF78FFE00BF1037BD46D2
:1008F40080BD80B58EB000AFC7E9000107F10C03DD
:1009040028220021184601F0D3FE0A237B63D7E98D
:100914000023134323D13020FFF7E2FE35E0D7E96B
:1009240000014FF00A024FF00003FFF751FC7B6B0C
:10093400013B30329B0007F138010B4443F82C2C67
:10094400D7E900014FF00A024FF00003FFF740FC23
:1009540002460B46C7E900237B6B013B7B63D7E967
:1009640000231343DBD10DE07B6B9B0007F13802BE
:10097400134453F82C3CDBB21846FFF7B1FE7B6BF3
:1009840001337B637B6B092BEED900BF3837BD463F
:1009940080BD000080B500AF01220D21074800F0A2
:1009A4002EFC032000F0BEFD00220D21034800F0C0
:1009B40026FC032000F0B6FD00BF80BD000002400D
:1009C40080B483B000AF0346FB7197F907305A42F5
:1009D40003F01F0302F01F0258BF53425BB21A46D2
:1009E400012303FA02F1084A97F90730002B00DAD1
:1009F4001F335B115BB242F8231000BF0C37BD46B6
:100A04005DF8047B704700BF00E100E080B485B06E
:100A140000AF0346FB710B46BB7113467B71BA7979
:100A24000F4BDB681B0A03F00703043B02FA03F3D2
:100A34005AB297F9053013435BB2FB73FB7B9AB24E
:100A4400084997F90730120192B203F5C07321F8EF
:100A5400132000BF1437BD465DF8047B704700BF08
:100A640000ED00E000E100E0B0B584B000AF7860D4
:100A7400396007F10C0300210A461A800A469A706D
:100A84007B681B7C3B7301237B730223BB737B68F2
:100A9400DB6807F10C021146184600F0E5FA7B68A2
:100AA4001B7A3B7302237B730023BB737B685B68F5
:100AB40007F10C021146184600F0D6FA7B685B6811
:100AC400397B0122184600F072FB7B681B781946BB
:100AD400254A342303FB01F3134414331A683B6897
:100AE4001A603B6802221A717B681B7819461E4AF9
:100AF400342303FB01F3134430331B689AB23B687D
:100B04005A813B6800229A737B685B6A9AB23B689D
:100B14001A813B680022DA737B681A7E3B681A7577
:100B24003B6802229A717B681B7819460E4A34236B
:100B340003FB01F3134418330C4A1C1D15460FCD57
:100B44000FC42B682360386800F050FD7B681C33A9
:100B54001946386800F0F4FD386800F0F7FF00BF6C
:100B64001037BD46B0BD00BF000000205800002073
:100B740080B485B000AF78600023FB730023FB735F
:100B840013E07B681A68FB7B0D49342000FB03F3F8
:100B94000B4414331B689A4204D10A4B1B6801337B
:100BA400084A1360FB7B0133FB73FB7B002BE8D00B
:100BB40000BF00BF1437BD465DF8047B704700BF1B
:100BC40000000020C000002080B584B000AF786031
:100BD4000023FB730023BB600023FB737AE07B6874
:100BE4001A68FB7B3F49342000FB03F30B441433A6
:100BF4001B689A426BD17B681A7DFB7B3949342090
:100C040000FB03F30B441C331B789A425FD1FB7B3C
:100C1400002B5CD1344B1B78002B23D1FB7B314A56
:100C2400342101FB03F313441C331B781946786801
:100C340001F008F803469AB22C4B1A802A4B012281
:100C44001A70FB7B274A342101FB03F313441C3342
:100C54001B7801221946786801F05AF8244B0022C7
:100C64001A6034E0204B1B78012B30D1FB7B1D4AEA
:100C7400342101FB03F313441C331B7819467868B1
:100C840000F0E0FF03469AB21A4B1A80194B1B88F6
:100C94009BB21A46154B1B889BB2D31ABB60BB6828
:100CA400154AA2FB03235B099AB2144B1A800E4B1C
:100CB40000221A70FB7B0B4A342101FB03F313441B
:100CC4001C331B7800221946786801F021F8FB7B5D
:100CD4000133FB73FB7B002B81D000BF00BF1037B7
:100CE400BD4680BD00000020C4000020BA000020E2
:100CF400C0000020BC00002009CB3D8DB8000020BE
:100D040080B582B000AF0346FB71FB79184A3421E9
:100D140001FB03F313440C331868FB79144A3421A0
:100D240001FB03F3134410331B780122194600F02E
:100D340066FA052000F094FBFB790D4A342101FB8F
:100D440003F313440C331868FB79094A342101FB7B
:100D540003F3134410331B780022194600F04FFAB2
:100D6400044B1B889BB218460837BD4680BD00BFA4
:100D740000000020B800002080B500AF012310223D
:100D84000121054800F022F8012310220021024825
:100D940000F01CF800BF80BD0004024080B500AF25
:100DA4000021034800F065FA0346184680BD00BFE1
:100DB4000004024080B500AF0121034800F059FA55
:100DC4000346184680BD00BF0004024080B582B0CF
:100DD40000AF7860084611461A460346FB700B467E
:100DE400BB7013467B70786800F058FA03461946C6
:100DF400022000F0BBFA7B681B68FA7852000321DA
:100E040001FA02F2D2431340B978FA7852009140C1
:100E1400FA785200032000FA02F20A401A437B686F
:100E24001A60BB78002B0BD0BB78082B08D0BB789A
:100E3400102B05D0BB780A2B02D0BB78122B19D10A
:100E44007B68DB68FA785200032101FA02F2D2438C
:100E54001340BA78D208D2B21146FA7852009140BF
:100E6400FA785200032000FA02F20A401A437B681F
:100E7400DA6037E0BB78012B08D0BB78052B05D0AE
:100E8400BB78062B02D0BB78022B2BD17B685B6826
:100E9400FA78012101FA02F2D2431340BA78920897
:100EA400D2B21146FA789140FA78012000FA02F29F
:100EB4000A401A437B685A607B689B68FA78520040
:100EC400032101FA02F2D24313407978FA785200EE
:100ED4009140FA785200032000FA02F20A401A43C1
:100EE4007B689A6000BF0837BD4680BD80B483B07C
:100EF40000AF0346FB710B46BB7113467B71FB7954
:100F0400022B1ED0022B28DC002B02D0012B0CD08C
:100F140023E0154B1B687979BA79520001FA02F281
:100F24001146114A0B43136017E0104B1B68797983
:100F3400BA79520001FA02F211460C4A0B431360CB
:100F44000BE00B4B1B687979BA79520001FA02F273
:100F54001146074A0B43136000BF00BF0C37BD4660
:100F64005DF8047B704700BF0000024000040240AB
:100F74000008024080B483B000AF0346FB710B4607
:100F8400BB7113467B71BB79072B2DD8FB79022BE0
:100F94001ED0022B5CDC002B02D0012B0CD057E0BE
:100FA4002E4B1B6A7979BA79920001FA02F2114642
:100FB4002A4A0B4313624BE0294B1B6A7979BA79AD
:100FC400920001FA02F21146254A0B4313623FE0F4
:100FD400244B1B6A7979BA79920001FA02F211461C
:100FE400204A0B43136233E0FB79022B22D0022BFD
:100FF4002EDC002B02D0012B0ED029E0174B5B6AAC
:101004007979BA7902F00702920001FA02F21146E4
:10101400124A0B4353621BE0114B5B6A7979BA792C
:1010240002F00702920001FA02F211460C4A0B4345
:1010340053620DE00B4B5B6A7979BA7902F00702CF
:10104400920001FA02F21146064A0B43536200BFB2
:1010540000BF0C37BD465DF8047B704700000240BA
:10106400000402400008024080B582B000AF7860FE
:101074003960786800F012F903461946022000F03E
:1010840075F97B681B683A6812785200032101FAEB
:1010940002F2D24313403A68527811463A68127801
:1010A400520091403A6812785200032000FA02F28A
:1010B4000A401A437B681A603B685B78002B0FD0A8
:1010C4003B685B78082B0BD03B685B78102B07D010
:1010D4003B685B780A2B03D03B685B78122B1DD1ED
:1010E4007B68DB683A6812785200032101FA02F245
:1010F400D24313403A685278D208D2B211463A68C1
:101104001278520091403A6812785200032000FA93
:1011140002F20A401A437B68DA6044E03B685B7879
:10112400012B0BD03B685B78052B07D03B685B78C1
:10113400062B03D03B685B78022B34D17B685B6859
:101144003A681278114601228A40D24313403A6821
:1011540052789208D2B211463A68127891403A68AD
:1011640012781046012282400A401A437B685A6072
:101174007B689B683A6812785200032101FA02F2F4
:10118400D24313403A68927811463A681278520072
:1011940091403A6812785200032000FA02F20A40A1
:1011A4001A437B689A6000BF0837BD4680BD80B48F
:1011B40083B000AF78600B46FB701346BB70FB78BE
:1011C400072B0AD87B681B6AB978FA78920001FA6F
:1011D40002F21A437B681A620BE07B685B6AB97897
:1011E400FA7802F00702920001FA02F21A437B68CD
:1011F4005A6200BF0C37BD465DF8047B704780B46B
:1012040083B000AF78600B46FB701346BB70BB78AD
:10121400002B13D0012B25D1FB78012202FA03F312
:101224001AB27B689B699BB21BB213431BB299B27F
:101234007A68936961F30F03936114E0FB780122E8
:1012440002FA03F31AB27B689B69C3F30F439BB2A0
:101254001BB213431BB299B27A68936961F31F43BB
:10126400936100E000BF00BF0C37BD465DF8047B0E
:10127400704780B483B000AF78600B46FB707B6826
:101284001A69FB7822FA03F3DBB203F00103DBB241
:1012940018460C37BD465DF8047B704780B485B0B2
:1012A40000AF78600023FB607B6803F13F4303F5E4
:1012B4007E03FB60FB689B0ADBB218461437BD460D
:1012C4005DF8047B7047000080B483B000AF7860A1
:1012D400254A136843F001031360234A136843F457
:1012E40080331360204A136843F0807313607B6873
:1012F4001B781D4A03F00303D9B2936861F3010319
:1013040093607B689B7A184A03F00103D9B213688F
:1013140061F3924313607B681B78022B1CD0022B71
:101324001BDC002B02D0012B0BD016E07B681B8941
:101334000D4A03F00F03D9B2936861F30713936066
:101344000BE07B681B89084A03F01F03D9B293683A
:1013540061F31443936000E000BF00BF0C37BD4647
:101364005DF8047B704700BF0038024080B483B04E
:1013740000AF03460A46FB711346BB71FB79032B8E
:1013840036D801A252F823F0C9130008DF1300086D
:101394009D130008B3130008194B1B6BBA79012184
:1013A40001FA02F21146164A0B43136321E0144B6F
:1013B4005B6BBA79012101FA02F21146104A0B4320
:1013C400536316E00E4B1B6CBA79012101FA02F249
:1013D40011460B4A0B4313640BE0094B5B6CBA795F
:1013E400012101FA02F21146054A0B43536400E05D
:1013F40000BF00BF0C37BD465DF8047B704700BFDB
:101404000038024080B483B000AF7860124B0022F1
:101414001A607B681B78104A03F00103D9B2136881
:1014240061F3820313607B685B78002B0DD07B68CB
:101434005B68002B04D07B685B68084A136004E097
:10144400054A13686FF34103136000BF0C37BD46B0
:101454005DF8047B704700BF10E000E0D00000207E
:1014640080B487B000AF78607B685B003B612B4B36
:101474009B687B61294B1B68FB60284A13686FF3E8
:1014840000031360254A13686FF341031360234A72
:101494003B695360214B00229A60204A136843F051
:1014A4000103136000BF1D4B1B68C3F30043DBB291
:1014B400012BF8D1194B9B687A69D31ABB607A69FE
:1014C400BB689A4204D97A69BB68D31A7B6101E08C
:1014D40000237B61124B5B78002B0BD10F4A1368FE
:1014E4006FF3000313600D4B00225A600B4B002274
:1014F4009A600CE00A4B5B78022B08D1074A7B699F
:101504005360064B00229A60044AFB68136000BFD4
:101514001C37BD465DF8047B704700BF10E000E057
:10152400C800002080B487B000AF78607B684FF4B7
:10153400FA6202FB03F33B612A4B9B687B61294BF4
:101544001B68FB60274A13686FF300031360254A86
:1015540013686FF341031360224A3B695360214BC4
:1015640000229A601F4A136843F00103136000BF0E
:101574001C4B1B68C3F30043DBB2012BF8D1194B9E
:101584009B687A69D31ABB607A69BB689A4204D9AA
:101594007A69BB68D31A7B6101E000237B61124B3B
:1015A4005B78002B0BD10F4A13686FF300031360B1
:1015B4000C4B00225A600B4B00229A600CE00A4B41
:1015C4005B78022B08D1074A7B695360054B0022E4
:1015D4009A60044AFB68136000BF1C37BD465DF87F
:1015E400047B704710E000E0C800002080B586B09E
:1015F40000AF78607B681B681B683B617B681B6875
:101604009B69FB607B681B681B6ABB607B681B680B
:10161400DB687B617B681B68454A934206D1454B76
:101624005B6C444A43F00103536422E07B681B680B
:10163400B3F1804F06D13F4B1B6C3E4A43F001038C
:10164400136416E07B681B683B4A934206D1394B0E
:101654001B6C384A43F0020313640AE07B681B687E
:10166400364A934205D1334B1B6C324A43F0040390
:1016740013643B6923F060033B617B68DB7B5B01A4
:101684001A463B69134343F001033B617B685A8963
:101694007B681B689A627B681A897B681B68DA62BC
:1016A4007B689B79002B2ED07B689B791A467B69DB
:1016B40013437B617B681B68B3F1804F08D1002220
:1016C40000211C20FFF7A2F91C20FFF779F91AE08A
:1016D4007B681B68184A934208D1002201211D200F
:1016E400FFF794F91D20FFF76BF90CE07B681B688A
:1016F400124A934207D1002202211E20FFF786F9E5
:101704001E20FFF75DF97B681B683A691A607B68E5
:101714001B68FA689A617B681B68BA681A627B68FE
:101724001B687A69DA6000BF1837BD4680BD00BF08
:10173400000001400038024000040040000800405E
:1017440080B584B000AF7860396002237B730023D6
:10175400BB737B681B684B4A93425BD07B681B68F6
:10176400B3F1804F19D17B681B7D012B02D100237B
:101774003B7305E07B681B7D022B01D101233B7386
:1017840007F10C0319464048FFF76EFC3B7B01222E
:1017940019463D48FFF70BFD3CE07B681B683B4A5C
:1017A400934219D17B681B7D012B02D106233B7325
:1017B40005E07B681B7D022B01D107233B7307F1F6
:1017C4000C0319463048FFF74FFC3B7B02221946B5
:1017D4002D48FFF7ECFC1DE07B681B682C4A934204
:1017E40018D17B681B7D012B02D106233B7305E0D6
:1017F4007B681B7D022B01D107233B7307F10C038C
:1018040019462448FFF730FC3B7B02221946214845
:10181400FFF7CDFC3B681B78013BDBB2DB00FB73BD
:101824007B681B689A697B681B6822F003029A61D3
:101834007B681B6899693B68DA687B681B680A43A4
:101844009A617B681B681A6A3B681B78013B9B00A2
:10185400012101FA03F31A437B681B6842F0020278
:101864001A623B685A687B681B68013A9A623B6853
:101874009A687B681B68013ADA6200BF1037BD467C
:1018840080BD00BF00000140000002400004004091
:10189400000800400004024080B584B000AF7860C6
:1018A400396002237B730223BB737B681B68604A25
:1018B400934206D15F4B5B6C5E4A43F00103536471
:1018C4006DE07B681B68B3F1804F1FD1594B1B6CD3
:1018D400584A43F0010313647B681B7D012B02D13A
:1018E40000233B7305E07B681B7D022B01D10123A0
:1018F4003B7307F10C0319464F48FFF7B5FB3B7BDD
:10190400012219464C48FFF752FC48E07B681B68EB
:101914004A4A93421FD1474B1B6C464A43F0020389
:1019240013647B681B7D012B02D106233B7305E006
:101934007B681B7D022B01D107233B7307F10C034A
:1019440019463D48FFF790FB3B7B022219463A4873
:10195400FFF72DFC23E07B681B68394A93421ED1B4
:10196400344B1B6C334A43F0040313647B681B7DC4
:10197400012B02D106233B7305E07B681B7D022B00
:1019840001D107233B7307F10C0319462D48FFF7D8
:101994006BFB3B7B022219462A48FFF708FC7B6855
:1019A4001B7D013BDBB2DB00FB737B681B68996921
:1019B400FB7B032202FA03F3DA437B681B680A40C9
:1019C4009A617B681B689969FB7B60229A407B68FB
:1019D4001B680A439A617B681B689969FB7B082230
:1019E4009A407B681B680A439A617B681B68196A82
:1019F4007B681B7D013B9B0001229A407B681B682E
:101A04000A431A627B685A897B681B689A627B68FE
:101A14001B683A68013ADA627B681B681A687B685B
:101A24001B6842F001021A6000BF1037BD4680BD3A
:101A34000000014000380240000002400004004061
:101A4400000800400004024080B485B000AF786014
:101A54000B46FB70FB787A681268D26A013202FB8B
:101A640003F3184AA2FB03235B09FB817B681B7DFC
:101A7400013B032B1ED801A252F823F0911A00084F
:101A84009B1A0008A51A0008AF1A00087B681B6897
:101A9400FA895A630FE07B681B68FA899A630AE043
:101AA4007B681B68FA89DA6305E07B681B68FA893E
:101AB4001A6400E000BF00BF1437BD465DF8047B24
:101AC400704700BF1F85EB5180B483B000AF7860CE
:101AD4000B46FB707B681B68DA68FB781340002BAD
:101AE40001D0012300E0002318460C37BD465DF801
:101AF400047B704780B483B000AF78600B46FB7002
:101B04007B681B681A69FB78DB4319467B681B6892
:101B14000A401A6100BF0C37BD465DF8047B70476C
:101B240080B483B000AF78600B46FB707B681B68A1
:101B34001A69FB781340002B01D0012300E0002335
:101B440018460C37BD465DF8047B704780B582B0FB
:101B540000AF78607B681B681A697B681B6822F099
:101B640001021A617B681B79012B5AD07B681B79AF
:101B7400022B19D17B681B681B697A68126823F4ED
:101B8400007323F0020313617B681B68DA687B68C7
:101B94001B7D013B022101FA03F31A437B681B6896
:101BA40042F00102DA603CE07B681B79032B21D10F
:101BB4007B68197D7B689B891A46786800F076F803
:101BC4007B681B681B697A68126823F4007323F02E
:101BD400020313617B681B68DA687B681B7D013B29
:101BE400022101FA03F31A437B681B6842F00102E5
:101BF400DA6016E07B681B79002B12D17B681B68C6
:101C04001A687B681B6822F070021A607B681B6884
:101C14001A687B689B7B1B0119467B681B680A4317
:101C24001A607B681B6800225A627B681B681A680A
:101C34007B681B6842F001021A6000BF0837BD468A
:101C440080BD000080B485B000AF78600B46FB70A7
:101C54000023FB60FB78013B032B1FD801A252F841
:101C640023F000BF791C0008831C00088D1C0008A9
:101C7400971C00087B681B685B6BFB600FE07B684C
:101C84001B689B6BFB600AE07B681B68DB6BFB607B
:101C940005E07B681B681B6CFB6000E000BFFB6811
:101CA40018461437BD465DF8047B704780B485B090
:101CB40000AFF8600B467A60FB72FB7A013B032BA2
:101CC4001ED801A252F823F0DD1C0008E71C00080E
:101CD400F11C0008FB1C0008FB681B687A685A6347
:101CE4000FE0FB681B687A689A630AE0FB681B686C
:101CF4007A68DA6305E0FB681B687A681A6400E0B6
:101D040000BF00BF1437BD465DF8047B704700BFB9
:101D140080B485B000AF78600B46FB701346BB708F
:101D24007B681B7D013BDBB29B00FB73BB78002B04
:101D34000CD17B681B68196AFB7B022202FA03F34D
:101D4400DA437B681B680A401A6224E0BB78012BE3
:101D54000AD17B681B68196AFB7B02229A407B6864
:101D64001B680A431A6216E0BB78022B13D17B6806
:101D74001B68196AFB7B02229A407B681B680A4332
:101D84001A627B681B68196AFB7B08229A407B688D
:101D94001B680A431A6200BF1437BD465DF8047B12
:101DA4007047000080B483B000AF78607B681B6824
:101DB4002F4A934206D12F4B5B6C2E4A43F001030A
:101DC400536422E07B681B68B3F1804F06D1294B32
:101DD4001B6C284A43F00103136416E07B681B68FC
:101DE400254A934206D1234B1B6C224A43F002033B
:101DF40013640AE07B681B68204A934205D11D4B9B
:101E04001B6C1C4A43F0040313647B681B681A6848
:101E14007B681B6822F001021A607B685A897B6820
:101E24001B689A627B681B895A1E7B681B68DA628E
:101E34007B681B681A687B681B6822F070021A6052
:101E44007B681A687B681B6812681A607B681B6869
:101E540000225A627B681B681A697B681B6822F03F
:101E640001021A6100BF0C37BD465DF8047B704760
:101E74000000014000380240000400400008004017
:101E840080B500AF0123012204211048FEF79EFF14
:101E94000123012201210D48FEF798FF01230122AD
:101EA40002210A48FEF792FF012301220321074879
:101EB400FEF78CFF4FF47A710548FFF7EDFC4FF401
:101EC4007A710448FFF7E8FC00BF80BD00000240BF
:101ED4006C0000208400002080B582B000AF03466F
:101EE400FB71FB7919460648FFF7AEFDFB791946ED
:101EF4000448FFF7A9FD00BF0837BD4680BD00BFF9
:101F04006C0000208400002080B500AF0122042171
:101F14000948FFF774F9002201210748FFF76FF918
:101F2400012202210448FFF76AF900220321024832
:101F3400FFF765F900BF80BD0000024080B500AF27
:101F4400002204210948FFF75AF900220121074819
:101F5400FFF755F9012202210448FFF750F9002246
:101F640003210248FFF74BF900BF80BD0000024087
:101F740080B500AF012204210948FFF740F900228F
:101F840001210748FFF73BF9002202210448FFF72B
:101F940036F9002203210248FFF731F900BF80BD62
:101FA4000000024080B500AF0F48FFF78DF9002113
:101FB4000220FFF7DBF904210120FFF7D7F90B48D2
:101FC400FFF720FA00F078FA09490A48FEF74CFDB9
:101FD400FFF756FFFEF7D0FEFEF7EEFBFEF7F0FA32
:101FE400FEF772FA00BF80BD4C000020C80000203C
:101FF400340000200000002080B582B000AF3E4BCA
:1020040000221A60FEF7E8FA3B4B1B68DBB2184665
:10201400FFF762FF002200213848FEF737FC0A224E
:1020240000213748FEF732FC00237B600020FEF7D6
:1020340067FE78607B685F2B01D964237B60002294
:1020440001213048FEF722FC7B681A464FF000035A
:1020540010461946FEF74DFC274B1B687968184655
:10206400FEF74CFA7B68142B03D9274B01221A7014
:102074000CE07B68142B06D87B68092B03D9224B10
:1020840002221A7002E0204B00221A70FEF786FE2C
:102094000346FB70FEF78EFE0346BB70FB78012BF4
:1020A4000BD1BB78012B08D1174B00221A700C22DC
:1020B40001211648FEF7EAFB04E00B220121134834
:1020C400FEF7E4FB0F2201211048FEF7DFFB0D228F
:1020D40001210F48FEF7DAFB074B1B681A464FF045
:1020E400000310461946FEF704FC074B1B781846FC
:1020F4000837BD4680BD00BFD80000206027000817
:102104006C27000874270008D400002080270008EA
:102114008427000880B582B000AF002200214D481A
:10212400FEF7B4FBFEF764FA4B4B1B68632B03D931
:10213400494B64221A6004E0474B1B680233464A49
:102144001360454B1B68DBB21846FFF7C5FE00233E
:102154007B600020FEF7D4FD78607B685F2B01D99B
:1021640064237B60002201213C48FEF78FFB7B68DF
:102174001A464FF0000310461946FEF7BAFB0C222C
:1021840001213748FEF782FB334B1B6879681846F8
:10219400FEF7B4F97B68092B03D8324B00221A707E
:1021A40008E07B68142B05D87B68092B02D92D4BDA
:1021B40002221A70FEF7F2FD0346FB70FEF7FAFDE9
:1021C4000346BB70FB78002B0CD1BB78002B09D1E4
:1021D400FEF70EFAFFF798FE0A2200212248FEF7C6
:1021E40055FB22E0BB78012B0CD1FB78002B09D1E5
:1021F400FEF7F2F9FFF7A2FE0A2200211B48FEF7C0
:1022040045FB12E0FB78012B0CD1BB78002B09D1E4
:10221400FEF7E2F9FFF7ACFE0A2200211448FEF7AC
:1022240035FB02E00F4B00221A700D2201211148E8
:10223400FEF72CFB084B1B681A464FF000031046B0
:102244001946FEF756FB074B1B7818460837BD4660
:1022540080BD00BF88270008D8000020742700082C
:1022640080270008D4000020942700089C27000839
:10227400A42700088427000880B582B000AF00229C
:1022840000215748FEF702FBFEF7B2F9554B1B68D5
:10229400322B03D1534B32221A6012E0514B1B688C
:1022A400312B05D84F4B1B6802334E4A136008E0AC
:1022B4004C4B1B68322B04D94A4B1B68013B494ADF
:1022C4001360484B1B68DBB21846FFF705FE00237A
:1022D4007B600020FEF714FD78607B685F2B01D9DA
:1022E40064237B60002201213F48FEF7CFFA7B681C
:1022F4001A464FF0000310461946FEF7FAFA0C226C
:1023040001213A48FEF7C2FA364B1B687968184631
:10231400FEF7F4F87B68142B03D9354B01221A70AD
:1023240005E07B68092B02D8314B00221A70FEF7B6
:1023340035FD0346FB70FEF73DFD0346BB70FB789D
:10234400002B0CD1BB78002B09D1FEF751F9FFF714
:10235400DBFD0A2200212748FEF798FA22E0BB7829
:10236400012B0CD1FB78002B09D1FEF735F9FFF7CF
:10237400E5FD0A2200212048FEF788FA12E0FB78E6
:10238400012B0CD1BB78002B09D1FEF725F9FFF7FF
:10239400EFFD0A2200211948FEF778FA02E0144BF7
:1023A40000221A700F4B1B68092B04D80F2201213D
:1023B4000E48FEF76BFA0D2201211148FEF766FA6A
:1023C400084B1B681A464FF0000310461946FEF7E7
:1023D40090FA074B1B7818460837BD4680BD00BFEE
:1023E400AC270008D80000207427000880270008C4
:1023F400D4000020942700089C270008A427000884
:102404008427000880B400AF00BFBD465DF8047B9C
:10241400704780B400AF00BFBD465DF8047B7047D1
:1024240080B400AF00BFBD465DF8047B704780B444
:1024340000AF00BFBD465DF8047B704780B400AFB9
:1024440000BFBD465DF8047B704780B400AF00BF99
:10245400BD465DF8047B704780B500AF0121154887
:10246400FFF75EFB0346002B0DD001211148FFF757
:102474002BFB0346002B06D001210E48FFF73AFB45
:102484000C48FEF775FB02210A48FFF749FB034697
:10249400002B0DD002210748FFF716FB0346002B43
:1024A40006D002210348FFF725FB0248FEF78CFB08
:1024B40000BF80BD3400002080B500AF0E4B0F4A32
:1024C4001A600D4B07225A810B4B00221A710A4BDA
:1024D40000229A73084B4FF6FF721A81064B0022B2
:1024E4009A71054B04221A750348FFF77FF80248D6
:1024F400FFF758FC00BF80BD0C010020000800401D
:1025040080B400AF104BDB680F4A43F00803D3607C
:102514000D4BDB680C4A43F00403D3600A4BDB68C1
:10252400094A23F48053D360074B40F283629A60D4
:10253400054BDB68044A43F40053D36000BFBD4637
:102544005DF8047B704700BF0010014080B485B083
:1025540000AF78600B46FB700023FB7310E000BFF4
:102564000D4B1B689B0903F00103002BF8D0FB7B88
:102574007A6813441A78084B5A60FB7B0133FB7367
:10258400FA7BFB789A42EAD300BF00BF1437BD46FA
:102594005DF8047B704700BF0010014080B582B035
:1025A40000AF0023FB71FFF7FDFCFB79022B10D079
:1025B400022BFADC002B02D0012B05D0F5E7FFF744
:1025C4001BFD0346FB7109E0FFF7A4FD0346FB7105
:1025D40004E0FFF751FE0346FB7100BFE5E700008E
:1025E4000D488546AFF300800C480D490D4A002381
:1025F40002E0D458C4500433C4188C42F9D30A4AB4
:102604000A4C002301E013600432A242FBD300F021
:1026140011F8FFF7C3FFFEE70000012000000020CF
:102624009C000020EC2700089C00002024010020CE
:10263400FEE7000070B50D4D0D4C641BA410002680
:10264400A64209D10B4D0C4C00F07CF8641BA4107D
:102654000026A64205D170BD55F8043B98470136C3
:10266400EEE755F8043B98470136F2E7E427000803
:10267400E4270008E4270008E8270008931E222B1B
:1026840010B50C4604D900230B701C46204610BD1F
:102694000A2A09D1002807DA2D230B7040420121B0
:1026A400214400F00DF8F1E70021F9E7FFF7E6BF58
:1026B40002440346934200D1704703F8011BF9E733
:1026C400F0B51F4C8BB005460B466E4604F1200C4A
:1026D40020686168374603C7083464453E46F7D12D
:1026E40021793971911E2068386022294FF0000148
:1026F40004D919700B4618460BB0F0BD581E844619
:10270400B5FBF2F70DF1280E02FB175676440C4682
:1027140016F8286C0CF8016F2E46B24201F1010143
:102724003D46EDD900225A541919A51AAA42E2DAF3
:1027340010F8015F0E780670013201F80159F4E7D0
:10274400B6270008F8B500BFF8BC08BC9E46704721
:0C275400F8B500BFF8BC08BC9E467047FA
:1027600049646C65204D6F646500000053544F5000
:102770002020000044697374616E63653D20000091
:10278000200000005300000048696768204D6F6416
:1027900065000000464F52574120000054524947FF
:1027A00048540000544C454654200000204C6F779C
:1027B000204D6F6465003031323334353637383967
:1027C0006162636465666768696A6B6C6D6E6F7081
:0C27D0007172737475767778797A000066
:0827DC0028DAFF7F0100000074
:0427E400B90100082F
:0427E800950100084F
:1027EC000000000000000240000000000004024055
:1027FC000E0000000000004001000000000000007E
:10280C0000000000000000000000000000000000BC
:10281C00100000000000004000000000000000005C
:10282C00000000000000000001000000000000009B
:10283C000024F40000000000010000000F00000064
:10284C00FFFF0000010000006000000000040040D9
:10285C00000000000000000000000000000000006C
:10286C000100000000040040000000000000000017
:0C287C000000000000000000020000004E
:04000005080025E5E5
:00000001FF
